:020000040800F2
:1000000000000320453D0008113B0008133B000899
:10001000153B0008173B0008193B000800000000D2
:100020000000000000000000000000001B3B000872
:100030001D3B0008000000001F3B0008953D000824
:10004000953D0008953D0008953D0008953D000848
:10005000953D0008953D0008953D0008953D000838
:10006000953D0008953D0008953D0008953D000828
:10007000953D0008953D0008953D0008953D000818
:10008000953D0008953D0008953D0008953D000808
:10009000953D0008953D0008953D0008953D0008F8
:1000A000953D0008953D0008953D0008953D0008E8
:1000B000953D0008953D0008953D0008953D0008D8
:1000C000953D0008953D0008953D0008953D0008C8
:1000D000953D0008953D0008953D0008953D0008B8
:1000E000953D0008953D0008953D0008953D0008A8
:1000F000953D0008953D0008953D0008953D000898
:10010000953D0008953D0008953D0008953D000887
:10011000953D0008953D0008213B0008953D0008ED
:10012000953D0008953D0008953D0008953D000867
:10013000953D0008953D0008953D0008953D000857
:10014000953D0008953D0008953D0008953D000847
:10015000953D0008953D0008953D0008953D000837
:10016000953D0008953D0008953D0008953D000827
:10017000953D0008953D0008953D000800000000F1
:10018000953D0008953D0008953D0008953D000807
:10019000953D0008953D0008953D0008953D0008F7
:0C01A000953D0008953D0008953D0008C5
:1001B00010B5054C237833B9044B13B10448AFF3A1
:1001C00000800123237010BD1808002000000000EB
:1001D000B882000808B5034B1BB103490348AFF3CD
:1001E000008008BD000000001C080020B882000844
:1001F000034613F8012B002AFBD1181A0138704767
:1002000001F0FF01102A2BDB10F0070F08D010F8C7
:10021000013B013A8B422DD010F0070F42B3F6D1CB
:10022000F0B441EA012141EA014122F007047FF0E4
:1002300000070023F0E80256083C85EA010586EA3B
:10024000010685FA47F5A3FA87F586FA47F6A5FA77
:1002500087F68EB9EED1F0BC01F0FF0102F0070283
:1002600032B110F8013B013A83EA010313B1F8D12E
:100270000020704701387047002D06BF354603380F
:10028000073815F0010F07D1013015F4807F02BF48
:10029000013015F4C03F0130F0BC0138704700BF99
:1002A00081F0004102E000BF83F0004330B54FEA27
:1002B00041044FEA430594EA050F08BF90EA020F94
:1002C0001FBF54EA000C55EA020C7FEA645C7FEA27
:1002D000655C00F0E2804FEA5454D4EB5555B8BF4A
:1002E0006D420CDD2C4480EA020281EA030382EABB
:1002F000000083EA010180EA020281EA0303362D4D
:1003000088BF30BD11F0004F4FEA01314FF4801C1F
:100310004CEA113102D0404261EB410113F0004F31
:100320004FEA03334CEA133302D0524263EB4303E8
:1003300094EA050F00F0A780A4F10104D5F1200E86
:100340000DDB02FA0EFC22FA05F2801841F10001E1
:1003500003FA0EF2801843FA05F359410EE0A5F1B5
:1003600020050EF1200E012A03FA0EFC28BF4CF0E6
:10037000020C43FA05F3C01851EBE37101F000459C
:1003800007D54FF0000EDCF1000C7EEB00006EEBA9
:100390000101B1F5801F1BD3B1F5001F0CD3490833
:1003A0005FEA30004FEA3C0C04F101044FEA44528A
:1003B00012F5800F80F09A80BCF1004F08BF5FEA11
:1003C000500C50F1000041EB045141EA050130BDF1
:1003D0005FEA4C0C404141EB0101013C28BFB1F503
:1003E000801FE9D291F0000F04BF01460020B1FA4E
:1003F00081F308BF2033A3F10B03B3F120020CDA21
:100400000C3208DD02F1140CC2F10C0201FA0CF0FE
:1004100021FA02F10CE002F11402D8BFC2F1200C63
:1004200001FA02F120FA0CFCDCBF41EA0C01904019
:10043000E41AA2BF01EB0451294330BD6FEA040462
:100440001F3C1CDA0C340EDC04F11404C4F120024D
:1004500020FA04F001FA02F340EA030021FA04F35F
:1004600045EA030130BDC4F10C04C4F1200220FAB6
:1004700002F001FA04F340EA0300294630BD21FAF4
:1004800004F0294630BD94F0000F83F4801306BFBA
:1004900081F480110134013D4EE77FEA645C18BFAE
:1004A0007FEA655C29D094EA050F08BF90EA020F45
:1004B00005D054EA000C04BF1946104630BD91EA3D
:1004C000030F1EBF0021002030BD5FEA545C05D140
:1004D0004000494128BF41F0004130BD14F580047F
:1004E0003CBF01F5801130BD01F0004545F0FE41F3
:1004F00041F470014FF0000030BD7FEA645C1ABF28
:10050000194610467FEA655C1CBF0B46024650EA5E
:10051000013406BF52EA033591EA030F41F400218A
:1005200030BD00BF90F0000F04BF0021704730B510
:100530004FF4806404F132044FF000054FF00001E5
:1005400050E700BF90F0000F04BF0021704730B5A6
:100550004FF4806404F1320410F0004548BF40427B
:100560004FF000013EE700BF42004FEAE2014FEAD0
:1005700031014FEA02701FBF12F07F4393F07F4FAB
:1005800081F06051704732F07F4208BF704793F0AE
:100590007F4F04BF41F40021704730B54FF46074C1
:1005A00001F0004521F000411CE700BF50EA0102C4
:1005B00008BF704730B54FF000050AE050EA01026D
:1005C00008BF704730B511F0004502D5404261EBDD
:1005D00041014FF4806404F132045FEA915C3FF41E
:1005E000D8AE4FF003025FEADC0C18BF03325FEABB
:1005F000DC0C18BF033202EBDC02C2F1200300FA6C
:1006000003FC20FA02F001FA03FE40EA0E0021FA90
:1006100002F11444BDE600BF70B54FF0FF0C4CF47E
:10062000E06C1CEA11541DBF1CEA135594EA0C0F30
:1006300095EA0C0F00F0DEF82C4481EA030621EA6B
:100640004C5123EA4C5350EA013518BF52EA0335A6
:1006500041F4801143F4801338D0A0FB02CE4FF058
:100660000005E1FB02E506F00042E0FB03E54FF088
:100670000006E1FB03569CF0000F18BF4EF0010E80
:10068000A4F1FF04B6F5007F64F5407404D25FEA7C
:100690004E0E6D4146EB060642EAC62141EA55512F
:1006A0004FEAC52040EA5E504FEACE2EB4F1FD0C71
:1006B00088BFBCF5E06F1ED8BEF1004F08BF5FEAEF
:1006C000500E50F1000041EB045170BD06F00046A1
:1006D00046EA010140EA020081EA0301B4EB5C044E
:1006E000C2BFD4EB0C0541EA045170BD41F4801146
:1006F0004FF0000E013C00F3AB8014F1360FDEBF6B
:10070000002001F0004170BDC4F10004203C35DA46
:100710000C341BDC04F11404C4F1200500FA05F3C9
:1007200020FA04F001FA05F240EA020001F000426A
:1007300021F0004110EBD37021FA04F642EB0601E0
:100740005EEA430E08BF20EAD37070BDC4F10C040A
:10075000C4F1200500FA04F320FA05F001FA04F2CE
:1007600040EA020001F0004110EBD37041F10001BA
:100770005EEA430E08BF20EAD37070BDC4F12005C5
:1007800000FA05F24EEA020E20FA04F301FA05F22D
:1007900043EA020321FA04F001F0004121FA04F2D5
:1007A00020EA020000EBD3705EEA430E08BF20EAA5
:1007B000D37070BD94F0000F0FD101F000464000DF
:1007C00041EB010111F4801F08BF013CF7D041EA61
:1007D000060195F0000F18BF704703F00046520065
:1007E00043EB030313F4801F08BF013DF7D043EA36
:1007F0000603704794EA0C0F0CEA135518BF95EAEC
:100800000C0F0CD050EA410618BF52EA4306D1D172
:1008100081EA030101F000414FF0000070BD50EA91
:10082000410606BF1046194652EA430619D094EA1B
:100830000C0F02D150EA013613D195EA0C0F05D105
:1008400052EA03361CBF104619460AD181EA030159
:1008500001F0004141F0FE4141F470014FF0000011
:1008600070BD41F0FE4141F4780170BD70B54FF0AC
:10087000FF0C4CF4E06C1CEA11541DBF1CEA13552C
:1008800094EA0C0F95EA0C0F00F0A7F8A4EB05040E
:1008900081EA030E52EA03354FEA013100F0888005
:1008A0004FEA03334FF0805545EA131343EA1263CE
:1008B0004FEA022245EA111545EA10654FEA002683
:1008C0000EF000419D4208BF964244F1FD0404F53C
:1008D000407402D25B084FEA3202B61A65EB030598
:1008E0005B084FEA32024FF480104FF4002CB6EB55
:1008F000020E75EB030E22BFB61A754640EA0C00D5
:100900005B084FEA3202B6EB020E75EB030E22BF14
:10091000B61A754640EA5C005B084FEA3202B6EB55
:10092000020E75EB030E22BFB61A754640EA9C0014
:100930005B084FEA3202B6EB020E75EB030E22BFE4
:10094000B61A754640EADC0055EA060E18D04FEAA2
:10095000051545EA16754FEA06164FEAC30343EA42
:1009600052734FEAC2025FEA1C1CC0D111F4801F0F
:100970000BD141EA00014FF000004FF0004CB6E708
:1009800011F4801F04BF01430020B4F1FD0C88BFA7
:10099000BCF5E06F3FF6AFAEB5EB030C04BFB6EBB2
:1009A000020C5FEA500C50F1000041EB045170BDA5
:1009B0000EF0004E4EEA113114EB5C04C2BFD4EBD2
:1009C0000C0541EA045170BD41F480114FF0000E56
:1009D000013C90E645EA060E8DE60CEA135594EAD2
:1009E0000C0F08BF95EA0C0F3FF43BAF94EA0C0FD5
:1009F0000AD150EA01347FF434AF95EA0C0F7FF44A
:100A000025AF104619462CE795EA0C0F06D152EA9D
:100A100003353FF4FDAE1046194622E750EA410681
:100A200018BF52EA43067FF4C5AE50EA41047FF492
:100A30000DAF52EA43057FF4EBAE12E74FF0FF3CF7
:100A400006E000BF4FF0010C02E000BF4FF0010CC8
:100A50004DF804CD4FEA410C7FEA6C5C4FEA430C41
:100A600018BF7FEA6C5C1BD001B050EA410C0CBF90
:100A700052EA430C91EA030F02BF90EA020F0020F2
:100A8000704710F1000F91EA030F58BF994208BF59
:100A900090422CBFD8176FEAE37040F00100704716
:100AA0004FEA410C7FEA6C5C02D150EA013C07D16D
:100AB0004FEA430C7FEA6C5CD6D152EA033CD3D0B8
:100AC0005DF8040B704700BF8446104662468C46B2
:100AD0001946634600E000BF01B5FFF7B7FF0028E5
:100AE00048BF10F1000F01BD4DF808EDFFF7F4FF0E
:100AF0000CBF012000205DF808FB00BF4DF808ED99
:100B0000FFF7EAFF34BF012000205DF808FB00BFBB
:100B10004DF808EDFFF7E0FF94BF012000205DF8DD
:100B200008FB00BF4DF808EDFFF7CEFF94BF012092
:100B300000205DF808FB00BF4DF808EDFFF7C4FF8B
:100B400034BF012000205DF808FB00BF4FEA410CD4
:100B50007FEA6C5C02D150EA013C0AD14FEA430CB7
:100B60007FEA6C5C02D152EA033C02D14FF00000F4
:100B700070474FF0010070474FEA410212F5001232
:100B800015D211D56FF47873B3EB625212D94FEAD4
:100B9000C12343F0004343EA505311F0004F23FABE
:100BA00002F018BF404270474FF00000704750EA13
:100BB000013005D111F0004008BF6FF000407047D0
:100BC0004FF00000704700BF53B94AB9002908BF71
:100BD00000281CBF4FF0FF314FF0FF3000F06EB91E
:100BE000ADF1080C6DE904CE00F006F8DDF804E084
:100BF000DDE9022304B070472DE9F047089D044663
:100C00008C46002B40F083808A42174647D9B2FABF
:100C100082F242B1C2F1200024FA00F091409740E4
:100C200040EA010C94404FEA1748230CBCFBF8F64D
:100C30001FFA87FE08FB16C143EA014306FB0EF1CB
:100C4000994209D9FB1806F1FF3080F019819942C9
:100C500040F21681023E3B445B1AA4B2B3FBF8F0AB
:100C600008FB103344EA034400FB0EFEA64509D9F5
:100C70003C1900F1FF3380F00581A64540F2028166
:100C800002383C4440EA0640A4EB0E0400261DB1A5
:100C9000D4400023C5E900433146BDE8F08702B9DE
:100CA000FFDEB2FA82F2002A50D1CB1B4FEA174E78
:100CB0001FFA87F80126B3FBFEFC210C0EFB1C3348
:100CC00041EA034108FB0CF38B4207D979180CF178
:100CD000FF3002D28B4200F2E9808446C91AA3B2E7
:100CE000B1FBFEF00EFB101143EA014408FB00F8D3
:100CF000A04507D93C1900F1FF3302D2A04500F20C
:100D0000D9801846A4EB080440EA0C40BFE78B42A8
:100D100009D9002D00F0B1800026C5E90001304658
:100D20003146BDE8F087B3FA83F6002E4AD18B42F4
:100D300002D3824200F2B880841A61EB03010120E1
:100D40008C46002DA8D0C5E9004CA5E7C2F12003D0
:100D500020FA03F6974001FA02F04FEA174ED94005
:100D60003043030CB1FBFEF61FFA87F80EFB161199
:100D700043EA014306FB08F1994204FA02F409D957
:100D8000FB1806F1FF3C80F08D80994240F28A808A
:100D9000023E3B445B1A81B2B3FBFEF00EFB103304
:100DA00041EA034100FB08F38B4207D9791800F1AF
:100DB000FF3C73D28B4271D902383944CB1A40EAD6
:100DC000064678E7C6F1200C03FA06F422FA0CF383
:100DD0001C4320FA0CF701FA06F34FEA144E21FAED
:100DE0000CF11F433B0CB1FBFEF91FFA84F80EFB1C
:100DF000191143EA014109FB08FA8A4502FA06F291
:100E000000FA06F308D9611809F1FF3048D28A4583
:100E100046D9A9F102092144A1EB0A01BFB2B1FBF5
:100E2000FEF00EFB101147EA014700FB08F8B84539
:100E300007D9E71900F1FF312ED2B8452CD9023875
:100E4000274440EA0940A7EB0807A0FB02894F4569
:100E5000C64649461AD317D05DB1B3EB0E0267EB15
:100E6000010707FA0CFCF2404CEA0202F740C5E920
:100E7000002700263146BDE8F0872E4628460BE7BE
:100E80000646E9E61846FDE64345E5D2B8EB020E14
:100E900069EB04010138DFE70846D2E760468DE7D9
:100EA0008146B9E7664675E730464AE7ACF1020C81
:100EB000394413E702383C4424E700BF704700BFC1
:100EC00008B5024B1B689B6A984708BDF81C0020B8
:100ED000034B9A6D02EB420203EB820318647047E6
:100EE00034080020034B9A6D02EB420203EB8203AD
:100EF0005864704734080020034B9A6D02EB42029D
:100F000003EB82039864704734080020F8B5064666
:100F10000C461546064B9B6D064A342101FB032304
:100F2000DF6DFFF7CDFF00FB046047F82050F8BDF0
:100F300034080020501C00202DE9F04F83B081467A
:100F40000E460092334B9A6D02EB420203EB820392
:100F50009B6CDA8801929D8805F1070B4FEAEB0B39
:100F60004FEACB085FFA88F8EBB2A8EB03085FFA08
:100F700088F84FF0000A33E0009AD75C002413E0B1
:100F80000099CB5C577847EA0327F7E7214B9A6D26
:100F900002EB420203EB820309EB04005A6C314678
:100FA00080B2FFF7B3FF0134A54215D92B1B434490
:100FB000013B012202FA03F33B42E7D0154B9A6D45
:100FC00002EB420203EB820309EB04001A6C314688
:100FD00080B2FFF79BFFE6E70136B6B20AF1010ADD
:100FE000019B534512D90AFB0BF3009A1A44BBF13B
:100FF000010FC1D0BBF1020FC2D00099CB5C577872
:101000003F0247EA034793781F43B7E703B0BDE8C1
:10101000F08F00BF3408002038B50A4B9C6D04EBFC
:10102000440403EB84039C6C2568203AE38803FBAB
:1010300002F2A3880733DB1003FB0252FFF77CFFA9
:1010400038BD00BF340800202DE9F04106460F46A8
:1010500015469846002412F8011B09B10134FAE73D
:10106000FFF72EFF264B9A6D02EB420203EB820341
:101070009B6C9B88B0FBF3F0B8F1010F2ED0B8F158
:10108000020F33D0002495F80080FFF719FF1C4BA6
:101090009A6D02EB420203EB82039B6C9A8802FB7F
:1010A00014039BB2934234BF00230123B8F1000F15
:1010B00008BF00230BB315F8012B39463046FFF764
:1010C000ABFF0F4B9A6D02EB420203EB82039B6C6A
:1010D00098880644B6B20134A4B2D4E7001B00FBE2
:1010E00003F3C3F34F031E44B6B2CBE7001B10FB60
:1010F00003F016FA80F6B6B2C4E7BDE8F08100BF8F
:101100003408002008B50B4B1A6842F400721A60CC
:101110001A6842F480621A601A6842F480721A6097
:10112000032000F02FF8002002F0B4FC02F096FC3F
:10113000002008BD003C0240034A1168034B1B78A5
:101140000B441360704700BFFC1C002028000020E7
:10115000014B1868704700BFFC1C002038B50446DE
:10116000FFF7F6FF0546B4F1FF3F02D0044B1B78B2
:101170001C44FFF7EDFF401BA042FAD338BD00BF6F
:1011800028000020074AD36823F4E0631B041B0CEB
:10119000000200F4E060034343F0BF6343F4003314
:1011A000D360704700ED00E030B4174BDB68C3F349
:1011B0000223C3F10704042C28BF04241D1D062D9F
:1011C00018D9033B4FF0FF3505FA04F421EA040176
:1011D000994005FA03F322EA0303194300280BDBC5
:1011E0000901C9B200F1604000F5614080F80013C8
:1011F00030BC70470023E5E700F00F000901C9B2D9
:10120000024B1954F4E700BF00ED00E014ED00E0DC
:10121000002807DB00F01F02400901239340024A27
:1012200042F82030704700BF00E100E058B110B52F
:10123000044643791BB101236371002010BD037183
:1012400001F004FEF7E70120704748B310B50446EB
:1012500090F83930FBB1022384F8393022681368E2
:1012600023F4403361680B4313602268536B23F00F
:101270000703A1680B4353632268136C23F47F5365
:1012800023F03F03E1680B4313640020E063012374
:1012900084F8393010BD80F8383001F00FFEDAE7FD
:1012A0000120704790F83830012B59D030B4012319
:1012B00080F83830022380F8393000EB0113DA6906
:1012C0008B1C1B01C35842EA0343093A012A1ED969
:1012D0008A1C00EB0212526843EA026341BB0468B5
:1012E000656A204A2A4013436362026800EB0113D7
:1012F0009C699461DB69093B012B10D9012380F8BB
:101300003930002380F83830184630BC70478A1CCA
:1013100000EB0212526802F07F421343DEE7023113
:1013200000EB01114B68026823F07F439362E5E70D
:101330000468E5690B4A2A401343E361026800EB45
:1013400001139C691461DB69093B012BD6D802317A
:1013500000EB01114B68026823F07F431362CDE775
:1013600002207047F0FFFC0000230F2B00F2EA8000
:10137000F0B482B05EE086685F000324BC4026EAD9
:101380000406CC68BC4034438460466826EA020602
:101390004C68C4F300129A403243426058E0DC08C3
:1013A000083450F8247003F0070296000F22B24070
:1013B00027EA02070A69B2403A4340F824205BE07A
:1013C000092200E00022B2403A4302345E4E46F861
:1013D00024205E4A1468EA4324EA05064F6817F49D
:1013E000803F01D045EA0406584C2660646802EA52
:1013F00004064F6817F4003F01D045EA0406534C39
:101400006660A46802EA04064F6817F4801F01D0E2
:1014100045EA04064D4CA660E46822404E6816F486
:10142000001F01D045EA0402484CE26001330F2B53
:1014300000F2858001229A400C6804EA020532EA33
:101440000404F3D14C6804F00304013C012C92D94C
:101450004A6802F00302032A09D0C4685E0003222E
:10146000B24024EA02048A68B2402243C2604A6859
:1014700002F00302022A92D004685E000322B24006
:1014800024EA02044A6802F00302B24022430260E6
:101490004A6812F4403FC9D0002201922C4A546C91
:1014A00044F480445464526C02F480420192019AE4
:1014B0009C08A61C244A52F8267003F003029600EA
:1014C0000F22B24027EA0207224A90423FF47AAF45
:1014D00002F58062904222D002F58062904220D0D4
:1014E00002F5806290421ED002F5806290421CD0CC
:1014F00002F5806290421AD002F58062904218D0C4
:1015000002F58062904216D002F58062904214D0BB
:1015100002F5806290423FF453AF0A2253E7012262
:1015200051E702224FE703224DE704224BE7052251
:1015300049E7062247E7072245E7082243E702B0CA
:10154000F0BC7047704700BF00380140003C0140CC
:1015500000380240000002400AB18161704709046E
:1015600081617047002800F0CC80F8B5044690F8FF
:101570003D30002B77D0242384F83D302268136857
:1015800023F0010313602268136843F400431360DF
:101590002268136823F40043136000F09BFD626827
:1015A0005A4B9A4264D85A4B98428CBF002301236D
:1015B000002B40F0A880574DA5FB0035AF0C2668E6
:1015C000716821F03F0141EA9541716021680B6A21
:1015D00023F03F0365684D4A95424FD87A1C134368
:1015E0000B622568E96921F44F4121F0FF0163682E
:1015F000464A93424CD801385B00B0FBF3F001300F
:1016000040F6FC73184278D0C0F30B030B43EB6138
:1016100021680B6823F0C003E269206A0243134388
:101620000B6021688B6823F4034323F0FF032269D6
:10163000E068024313438B602168CB6823F0FF030B
:101640006269A06902431343CB602268136843F0C8
:101650000103136000202064202384F83D302063C0
:1016600084F83E00F8BD80F83C3001F0F9FD82E7D7
:10167000294B98428CBF0023012399E74FF49672BF
:1016800002FB07F2254DA5FB025292090132A6E7A3
:10169000A268BAB9461E03EB4307B6FBF7F601365C
:1016A000C6F30B06B6FA86F6760946BBC2B9421EE9
:1016B00003EB4303B2FBF3F20132C2F30B0242F439
:1016C0000043A3E7461E03EB830707EB8707B6FB40
:1016D000F7F60136C6F30B06B6FA86F67609E4E7A6
:1016E000421E03EB830303EB8303B2FBF3F20132ED
:1016F000C2F30B0242F4404388E7042386E7012348
:1017000084E7012070470120ACE700BFA0860100FC
:101710007F841E0083DE1B43FF083D00D34D621013
:1017200090F83D30DBB2202B01D0022070472423FB
:1017300080F83D300268136823F0010313600268EB
:10174000536A23F0100353620268536A19435162CB
:101750000268136843F001031360202380F83D30D2
:101760000020704790F83D30DBB2202B01D00220E2
:101770007047242380F83D300268136823F001038A
:1017800013600268536A9BB223F00F03194389B2B6
:1017900051620268136843F001031360202380F84C
:1017A0003D3000207047F0B54E680568EB68C3F324
:1017B0000B431E44D40105EBC215D5F8883003F461
:1017C0007043C5F888300B680568EF68C7F30B47AE
:1017D0003B44013305EBC21543EA0643C5F88830A4
:1017E000CE680568EB68C3F30A031E4405EBC21517
:1017F000D5F88C3003F47043C5F88C308B680568DD
:10180000EF68C7F30A073B44013305EBC21543EA0F
:101810000643C5F88C30036803EBC213D3F8945029
:1018200025F00705C3F89450036803EBC2130D6954
:10183000C3F8945091F831E091F832C08F6906688E
:1018400006EBC216D6F89C300025C6F89C5091F8DD
:10185000303043EA0E2343EA0C43066806EBC21617
:1018600043EA0763C6F89C30036803EBC213D3F85E
:10187000986026F0FF06C3F89860036803EBC21374
:101880004E69C3F89860036803EBC213D3F8A060F5
:1018900026F4E06626F00706C3F8A060CE690F6A5A
:1018A000036803EBC2133E43C3F8A060036803EB75
:1018B000C213D3F8AC60C3F8AC50036803EBC21298
:1018C0004B6AC2F8AC300B696BB1012B3BD0042BD7
:1018D0003BD0022B08D0032B39D0072B01D001239A
:1018E00002E0022300E0042302682244D2F8B05050
:1018F00005F0E025C2F8B0508A6A03FB02F54A6899
:101900000E68921B03FB02F303330268224443EA8E
:101910000543C2F8B03003682344D3F8B42022F45E
:10192000FF6222F00702C3F8B42003682344CA6AA6
:10193000C3F8B42003681C44D4F8843043F0010396
:10194000C4F88430F0BD0323CEE70223CCE70223A2
:10195000CAE70000002872D038B5044690F8A130DC
:10196000002B67D0022384F8A1302268936923F00A
:101970007043936121688A696368A0680343E068E3
:1019800003432069034313438B6121688A682D4B0D
:101990001A408A60656920688268A16941EA054148
:1019A0000A4382602168CA681A40CA60E5692068F3
:1019B000C268216A41EA05410A43C26021680A6996
:1019C0001A400A61656A20680269A16A41EA054114
:1019D0000A43026121684A6913404B61E06A216849
:1019E0004B69226B42EA004213434B6194F8350085
:1019F00094F836301B042168CA6A02F07F42CA623A
:101A00002168CA6A43EA002394F83400034313436D
:101A1000CB622268536B43F00603536322689369D9
:101A200043F0010393610020C4F8A400012384F86B
:101A3000A13038BD80F8A03001F0BEFC92E7012053
:101A4000704700BF00F800F090F8A030012B27D0BD
:101A50002DE9F04106460F4694464FF0010880F804
:101A6000A080022380F8A130342404FB020438341F
:101A70000D460FCD0FC40FCD0FC40FCD0FC42B6873
:101A80002360624639463046FFF78DFE3368C3F85F
:101A9000248086F8A180002086F8A000BDE8F081AF
:101AA00002207047002800F0DF8170B582B0044644
:101AB000036813F0010F3BD0A64B9B6803F00C03A7
:101AC000042B2CD0A34B9B6803F00C03082B21D0D4
:101AD0006368B3F5803F4FD0B3F5A02F52D09D4B34
:101AE0001A6822F480321A601A6822F480221A607E
:101AF0006368002B50D0FFF72BFB0546954B1B6806
:101B000013F4003F14D1FFF723FB401B6428F5D9E1
:101B10000320B0E18F4B5B6813F4800FD8D08D4B5E
:101B20001B6813F4003F03D06368002B00F09E8114
:101B3000236813F0020F54D0864B9B6813F00C0FF0
:101B40003ED0844B9B6803F00C03082B33D0E36832
:101B5000002B67D0804B01221A60FFF7F9FA054687
:101B60007C4B1B6813F0020F53D1FFF7F1FA401BB7
:101B70000228F5D903207EE1764A136843F48033C6
:101B80001360B5E7734B1A6842F480221A601A6832
:101B900042F480321A60ABE7FFF7DAFA05466D4B84
:101BA0001B6813F4003FC3D0FFF7D2FA401B642830
:101BB000F5D903205FE1674B5B6813F4800FC6D152
:101BC000644B1B6813F0020F03D0E368012B40F055
:101BD0004F81604A136823F0F803216943EAC10387
:101BE0001360236813F0080F40D0636963B35B4B45
:101BF00001221A60FFF7ACFA0546564B5B6F13F0F3
:101C0000020F33D1FFF7A4FA401B0228F5D90320B5
:101C100031E1504A136823F0F803216943EAC10314
:101C20001360DEE74C4B00221A60FFF791FA05467D
:101C3000484B1B6813F0020FD3D0FFF789FA401B03
:101C40000228F5D9032016E1444B00221A60FFF761
:101C50007FFA05463F4B5B6F13F0020F06D0FFF78C
:101C600077FA401B0228F5D9032004E1236813F01A
:101C7000040F78D0374B1B6C13F0805F0DD100231D
:101C80000193344B1A6C42F080521A641B6C03F0BF
:101C900080530193019B012500E00025304B1B6818
:101CA00013F4807F21D0A368012B32D0052B36D0CE
:101CB000284B1A6F22F001021A671A6F22F00402F1
:101CC0001A67A368002B34D0FFF742FA0646214B6F
:101CD0001B6F13F0020F45D1FFF73AFA801B41F258
:101CE00088339842F3D90320C5E01D4A136843F4B2
:101CF00080731360FFF72CFA0646194B1B6813F428
:101D0000807FD0D1FFF724FA801B0228F5D9032069
:101D1000B1E0104A136F43F001031367D1E70D4B95
:101D20001A6F42F004021A671A6F42F001021A6732
:101D3000C7E7FFF70DFA0646064B1B6F13F0020FBD
:101D400010D0FFF705FA801B41F288339842F3D98F
:101D5000032090E00038024000004742800E4742D6
:101D600000700040EDB9A369002B00F08380494A60
:101D7000926802F00C02082A51D0022B17D0464B71
:101D800000221A60FFF7E4F90446424B1B6813F087
:101D9000007F42D0FFF7DCF9001B0228F5D90320B1
:101DA00069E03C4A136C23F080531364DBE73A4B41
:101DB00000221A60FFF7CCF90546364B1B6813F07A
:101DC000007F06D0FFF7C4F9401B0228F5D9032095
:101DD00051E0E369226A1343626A43EA8213A26A0A
:101DE0005208013A43EA0243E26A43EA0263294A9B
:101DF0005360294B01221A60FFF7AAF90446254BCC
:101E00001B6813F0007F06D1FFF7A2F9001B022820
:101E1000F5D903202FE000202DE000202BE0012B3E
:101E20002BD01C4B5B6803F48001E269914226D100
:101E300003F03F02216A8A4223D1616A47F6C072E9
:101E40001A40B2EB811F1ED103F44031A26A52083E
:101E5000013AB1EB024F18D103F07063E26AB3EBC1
:101E6000026F14D1002006E001207047012002E03B
:101E7000012000E0002002B070BD0120FBE701203E
:101E8000F9E70120F7E70120F5E70120F3E701205A
:101E9000F1E700BF0038024060004742F8B52F4B21
:101EA0009B6803F00C03042B53D0082B53D12B4B0E
:101EB0005A6802F03F025B6813F4800F28D0274B6A
:101EC0005B68C3F3881358010021C01A61F1000157
:101ED0008E0146EA906687013C1A66EB0105E9002F
:101EE00041EA5471E000C01841F100014B0243EA9D
:101EF000D0534402204619460023FEF765FE174BD7
:101F00005B68C3F3014301335B00B0FBF3F023E0F4
:101F1000124B5B68C3F388135C010025E41A65F17A
:101F20000005AE0146EA9466A701381B66EB050181
:101F3000CC0044EA5074C500E81844F100018B025B
:101F400043EA90538402204619460023FEF73CFEE4
:101F5000D5E7034800E00348F8BD00BF0038024061
:101F600000127A000024F400002800F09B8070B575
:101F70000D4604464F4B1B6803F00F038B4208D2FB
:101F8000CBB24C4A1370136803F00F038B4240F03E
:101F90008B80236813F0020F17D013F0040F04D0C6
:101FA000454A936843F4E0539360236813F0080FA5
:101FB00004D0414A936843F4604393603E4A936877
:101FC00023F0F003A1680B439360236813F0010F23
:101FD00032D06368012B21D09A1E012A25D9364AB6
:101FE000126812F0020F61D033498A6822F00302AE
:101FF00013438B60FFF7ACF806462F4B9B6803F04A
:102000000C036268B3EB820F16D0FFF7A1F8801BB8
:1020100041F288339842F0D9032042E0264A126800
:1020200012F4003FE0D101203BE0234A126812F095
:10203000007FD9D1012034E01E4B1B6803F00F0351
:10204000AB4207D9EAB21B4B1A701B6803F00F03AF
:10205000AB422DD1236813F0040F06D0164A9368C3
:1020600023F4E053E1680B439360236813F0080FF7
:1020700007D0114A936823F46043216943EAC103FE
:102080009360FFF70BFF0C4B9B68C3F303130B4AE2
:10209000D35CD8400A4B18600A4B186801F0FAFC70
:1020A000002070BD012070470120FAE70120F8E709
:1020B0000120F6E7003C024000380240982706085D
:1020C000440600202C000020014B1868704700BF18
:1020D0004406002008B5FFF7F7FF044B9B68C3F3E5
:1020E0008223034AD35CD84008BD00BF00380240B9
:1020F000A827060808B5FFF7E7FF044B9B68C3F362
:102100004233034AD35CD84008BD00BF00380240C8
:10211000A82706080F2303600B4B9A6802F00302FE
:1021200042609A6802F0F00282609A6802F4E0521B
:10213000C2609B68DB0803F4E0530361034B1B6838
:1021400003F00F030B60704700380240003C024070
:1021500030B583B00446036813F0430F14D12368ED
:1021600013F00C0F69D1236813F0200F40F0BE80EC
:10217000236813F0100F00F0208194F82C20904B6E
:102180001A60002003B030BD8E4B00221A60FEF7AB
:10219000DFFF05468C4B1B6813F0006F06D0FEF77F
:1021A000D7FF431B022BF5D90320EBE7236813F07D
:1021B000010F07D06268A3681B0743EA8213824AB3
:1021C000C2F88430236813F0020F15D07E4AD2F88B
:1021D00084106068E3681B0643EA801301F0E04165
:1021E0000B43C2F88430D2F88C3023F01F03E1692E
:1021F00001390B43C2F88C30236813F0400F0AD02A
:102200006268E3681B0643EA8213A26843EA02732A
:102210006D4AC2F884306B4B01221A60FEF798FFBA
:102220000546694B1B6813F0006F98D1FEF790FFCD
:10223000401B0228F5D90320A4E7644B00221A6052
:10224000FEF786FF0546604B1B6813F0005F06D063
:10225000FEF77EFF431B022BF5D9032092E723688C
:1022600013F0040F16D0584AD2F888102069636919
:102270001B0643EA801301F0E0410B43C2F88830AB
:10228000D2F88C3023F4F853216A013943EA012350
:10229000C2F88C30236813F0080F14D04A4AD2F8E1
:1022A0008830216903F0706343EA8113A16943EA2E
:1022B0000173C2F88830D2F88C3023F44033616A5D
:1022C0000B43C2F88C30414B01221A60FEF740FFED
:1022D00005463D4B1B6813F0005F7FF444AFFEF7EB
:1022E00037FF401B0228F4D903204BE7002301935A
:1022F000354B1A6C42F080521A641B6C03F0805309
:102300000193019B324A136843F480731360FEF714
:102310001FFF05462E4B1B6813F4807F06D1FEF786
:1023200017FF401B0228F5D903202BE7264B1B6F14
:1023300013F4407312D0A26A02F440729A420DD094
:10234000214B1A6F22F440722249012008600020BC
:1023500008601A671B6F13F0010F12D1A36A03F410
:102360004072B2F5407F1DD0174A936823F4F813EA
:10237000936015490B6FA26AC2F30B0213430B67FC
:10238000F6E6FEF7E5FE05460F4B1B6F13F0020F56
:10239000E4D1FEF7DDFE401B41F288339842F3D9C9
:1023A0000320EFE608498A6822F4F81223F070430C
:1023B00023F4407313438B60DBE70020E2E600BFA9
:1023C000E01147426800474200380240700047422F
:1023D00000700040400E4742E0B138B50D4604465B
:1023E00090F82C308BB1022384F82C30214651F820
:1023F000040B00F0C2FB62682946206800F0F9FB7C
:10240000012384F82C30002038BD80F82D3000F0F6
:102410000DFEE8E70120704700285AD010B50446A9
:10242000436A33B94368B3F5827F05D00023C361A3
:1024300002E00023036143610023A36294F851305A
:10244000002B40D0022384F851302268136823F017
:1024500040031360636803F48273A26802F40442C9
:102460001343E26802F400621343226902F002029D
:102470001343626902F001021343A26902F400727D
:102480001343E26902F038021343226A02F0800229
:102490001343A26A02F40052216813430B60638B5A
:1024A00003F00403626A02F01002216813434B60D8
:1024B0002268D36923F40063D3610020606501239F
:1024C00084F8513010BD84F85030204601F08EFA67
:1024D000B8E70120704730B4036A056A25F00105AA
:1024E0000562846924F0F00444EA021423F00A032C
:1024F0000B438461036230BC704730B4056A25F039
:10250000100505628469036A24F4704444EA0234C5
:1025100023F0A00343EA01138461036230BC7047D7
:10252000836823F070030B4343F007038360704715
:1025300090F83D30DBB2012B37D1022380F83D30DB
:102540000268D36843F00103D3600368194A9342D9
:1025500020D0B3F1804F1DD0A2F57C42934219D018
:1025600002F58062934215D002F58062934211D049
:1025700002F5784293420DD002F57052934209D091
:10258000A2F59432934205D01A6842F001021A6013
:10259000002070479A6802F00702062A07D01A68DE
:1025A00042F001021A6000207047012070470020AD
:1025B000704700BF00000140704770477047704788
:1025C00010B5044603681A6912F0020F11D0DA68D8
:1025D00012F0020F0DD06FF002021A61012303778F
:1025E00003689B6913F0030F70D0FFF7E6FF002329
:1025F000237723681A6912F0040F12D0DA6812F0F8
:10260000040F0ED06FF004021A61022323772368AF
:102610009B6913F4407F5FD02046FFF7CEFF002375
:10262000237723681A6912F0080F12D0DA6812F0C3
:10263000080F0ED06FF008021A6104232377236875
:10264000DB6913F0030F4ED02046FFF7B6FF0023DF
:10265000237723681A6912F0100F12D0DA6812F08B
:10266000100F0ED06FF010021A6108232377236831
:10267000DB6913F4407F3DD02046FFF79EFF002327
:10268000237723681A6912F0010F03D0DA6812F079
:10269000010F36D123681A6912F0800F03D0DA686F
:1026A00012F0800F34D123681A6912F0400F03D062
:1026B000DA6812F0400F32D123681A6912F0200F45
:1026C00003D0DA6812F0200F30D110BDFFF774FF8D
:1026D0002046FFF773FF8AE72046FFF76DFF20468D
:1026E000FFF76CFF9BE72046FFF766FF2046FFF7EA
:1026F00065FFACE72046FFF75FFF2046FFF75EFF70
:10270000BDE76FF001021A61204601F063F8C1E7EE
:102710006FF080021A61204600F071F9C3E76FF094
:1027200040021A612046FFF74AFFC5E76FF020021A
:102730001A61204600F062F9C7E700000368304ADA
:10274000904212D0B0F1804F0FD0A2F57C4290425F
:102750000BD002F58062904207D002F58062904271
:1027600003D002F57842904203D123F070034A6807
:102770001343234A90422AD0B0F1804F27D0A2F5CC
:102780007C42904223D002F5806290421FD002F535
:10279000806290421BD002F57842904217D002F539
:1027A0007052904213D002F5806290420FD002F531
:1027B000806290420BD0A2F59832904207D002F589
:1027C0008062904203D002F58062904203D123F4EC
:1027D0004073CA68134323F080034A6913430360BC
:1027E0008B68C3620B688362054B984203D003F584
:1027F0008063984201D10B690363012343617047F1
:102800000000014040B310B5044690F83D30F3B1EC
:10281000022384F83D30214651F8040BFFF78EFF68
:10282000012384F8463084F83E3084F83F3084F841
:10283000403084F8413084F8423084F8433084F8E2
:10284000443084F8453084F83D30002010BD80F8D5
:102850003C3001F00BFADBE70120704710B48468CC
:1028600024F47F4442EA03220A43224382605DF853
:10287000044B704790F83C30012B78D010B50446DB
:10288000012380F83C30022380F83D3002689368D1
:1028900023F47F4323F0770393600B68602B4CD0C5
:1028A00029D8402B54D00CD9502B22D1CA68496862
:1028B0000068FFF710FE50212068FFF731FE00206E
:1028C00005E0202B0DD009D9302B0AD0012001239F
:1028D00084F83D30002384F83C3010BD0BB1102B40
:1028E00005D119462068FFF71BFE0020EFE7012005
:1028F000EDE70120EBE7B3F5805F34D0B3F5005F7F
:102900000CD1CB684A6889680068FFF7A7FF226886
:10291000936843F4804393600020D8E7702B24D160
:10292000CB684A6889680068FFF798FF2268936857
:1029300043F0770393600020C9E7CA6849680068DC
:10294000FFF7DBFD60212068FFF7EAFD0020BEE70E
:10295000CA6849680068FFF7BEFD40212068FFF79C
:10296000DFFD0020B3E70020B1E70120AFE7022040
:102970007047000090F83C30012B3BD030B401236D
:1029800080F83C30022380F83D3003685C689D6825
:1029900024F070040A6822435A600368164A93427E
:1029A0001AD0B3F1804F17D0A2F57C42934213D0D6
:1029B00002F5806293420FD002F5806293420BD001
:1029C00002F57842934207D002F57052934203D049
:1029D000A2F59432934204D125F080054A6815434C
:1029E0009D60012380F83D30002380F83C3018467C
:1029F00030BC7047022070470000014070477047AC
:102A000070B504460268136923F44053C1680B4350
:102A1000136183680269134342691343C2691A430D
:102A20000168CB6823F4164323F00C031343CB60F7
:102A30000268536923F4407381690B43536103684F
:102A4000344A934206D002F58062934202D0FFF7E7
:102A500041FB01E0FFF74EFBE369B3F5004F2AD0DD
:102A60000026051846EB06012D1846EB0101CB00A8
:102A700043EA5573EA001546194663689A009B0FAE
:102A8000281846EB0101FEF79FF8234DA5FB003205
:102A90005109642303FB11031B013233A5FB0323FC
:102AA0005B0903F0F00202EB011203F00F0321684F
:102AB00013448B6070BD0026051846EB06012D18E7
:102AC00046EB0101CB0043EA5573EA00154619466F
:102AD00062683346921846EB0303281846EB01015F
:102AE000FEF772F80C4DA5FB00325109642303FB7D
:102AF0001103DB003233A5FB03235B095A0002F408
:102B0000F87202EB011203F00703216813448B6093
:102B1000D0E700BF001001401F85EB5158B310B53E
:102B2000044690F83D300BB3242384F83D302268EE
:102B3000D36823F40053D3602046FFF761FF226877
:102B4000136923F4904313612268536923F02A0325
:102B500053612268D36843F40053D360002020649B
:102B6000202384F83D3084F83E3010BD80F83C309E
:102B700001F0AEF8D8E70120704730B40B68012BA4
:102B80001AD0026822F4FF4222F07F024B688C6860
:102B90002343CC6823430C6923434C6923438C694A
:102BA0002343CC6923430C6A2343496A0B431343F1
:102BB0000360002030BC7047026822F4F842CB6901
:102BC0000C6A1C434B6A1C431443426822F4FF42C4
:102BD00022F07F024B688D682B43CD682B430D6933
:102BE0002B434D692B4389690B43134304604360B6
:102BF000DFE730B4012A21D0826802F070420B680E
:102C0000013B4C68013C43EA04138C68013C43EAF5
:102C10000423CC68013C43EA04330C69013C43EAD9
:102C200004434C69013C43EA04538969013943EA8E
:102C3000016313438360002030BC7047846824F430
:102C4000700424F47044CA68551E4B695A1E12055C
:102C500042EA05322243C46804F070440B68013B29
:102C60004D68013D43EA05138D68013D43EA0523A4
:102C70000D69013D43EA05438969013943EA01636E
:102C800023438260C360D6E708B529B1030AC2B204
:102C9000044803F01BF9FEE7020AC1B2024803F040
:102CA00015F9F8E7B4270608E827060830B58DB00F
:102CB00004460D460021204800F0F0FD10F0FF0F03
:102CC00029D11E4B00930123ADF80430ADF8063036
:102CD000ADF808301A4A039204940022059219496B
:102CE0000691ADF81C30ADF81E30ADF820304FF431
:102CF000207309930A950B9269460F4B186800F0F0
:102D0000DDFD58B10C4951F8040B00F071FD60B1C4
:102D100000200DB030BD0C49FFF7B6FF064B186818
:102D200000F0B8FD0949FFF7AFFF034B186800F04A
:102D3000B1FD0749FFF7A8FFC00800204004044088
:102D4000C467050040040400182806082C2806085B
:102D50003C28060810B50C46094B996BDA6B0861E4
:102D60001461186800F01AFE012801D1002010BD7E
:102D7000034B186800F08EFD0249FFF785FF00BF86
:102D8000C008002054280608002070470020704723
:102D900008B5044803F020F900F004FE0249FFF7EB
:102DA00085FF08BD642806083809002008B51948C1
:102DB00003F012F9184B1B6813B3174B5B6BB3F19D
:102DC000011F14D00020142363F30700202363F3B2
:102DD0001F201249FFF758FF11491248FFF7BAFFA9
:102DE00003460AE00E48FFF7D1FF034643B90D48FA
:102DF000FFF7CAFF03460028EED0002BF6D1F1E71B
:102E00000020112363F30700102363F31F200649FA
:102E1000FFF73AFF84280608C0080020A02806080B
:102E2000B80B0020BC0B0020E828060808B50548B0
:102E3000054B0360FEF7FAF900B908BD00F0D6FCB7
:102E4000FBE700BF001D0020003002400268094B74
:102E50009A4200D0704782B000230193064B1A6B50
:102E600042F480521A631B6B03F480530193019B5D
:102E700002B07047003002400038024008B50D48EB
:102E80000D4B0360002343608360C3608362C362B1
:102E900003634363FEF7D9F928B901210548FEF71A
:102EA00001FA18B908BD00F0A1FCF6E700F09EFC9D
:102EB000F8E700BF081D002000B002400268094B7F
:102EC0009A4200D0704782B000230193064B1A6BE0
:102ED00042F400021A631B6B03F400030193019B8D
:102EE00002B0704700B00240003802402E4B1B6811
:102EF00003B170472DE9F04186B04FF001082A4B2D
:102F0000C3F8008000240094284B9A6B42EA080220
:102F10009A639B6B03EA08030093009B4FF63F0301
:102F20000193022702970394032604960C25059526
:102F300001A91F48FEF718FACDF804800297039400
:102F40000496059501A91B48FEF70EFA48F23313C3
:102F50000193029703940496059501A91648FEF77C
:102F600003FA4FF683730193029703940496059531
:102F700001A91248FEF7F8F94CF203730193029786
:102F800003940496059501A90D48FEF7EDF9602319
:102F90000193029703940496059501A90948FEF749
:102FA000E3F906B0BDE8F081BC1B00200038024008
:102FB00000140240000802400018024000100240C5
:102FC000000C02400004024000B589B01548164BC1
:102FD000036001234360002383600421C160102249
:102FE0000261402242614FF4C0728261C3614FF4BA
:102FF0000062026243624FF4005383620223019332
:1030000007220292039104920322059206930793EA
:103010006944FFF7E1F910B909B05DF804FB00F06D
:10302000E5FBF9E7481D0020400100A008B5FFF7C7
:103030005DFF08BD2DE9F0478EB0002409940A9485
:103040000B940C940D940194694B1A6B42F004029A
:103050001A631A6B02F004020192019A02941A6B2D
:1030600042F020021A631A6B02F020020292029AC6
:1030700003941A6B42F080021A631A6B02F080020A
:103080000392039A04941A6B42F001021A631A6BBA
:1030900002F001020492049A05941A6B42F00202B3
:1030A0001A631A6B02F002020592059A06941A6BD3
:1030B00042F040021A631A6B02F040020692069A2E
:1030C00007941A6B42F010021A631A6B02F0100296
:1030D0000792079A08941A6B42F008021A631B6B56
:1030E00003F008030893089B424F224616213846F6
:1030F000FEF732FADFF80481224680214046FEF7CF
:103100002BFA3D4E22464FF440513046FEF724FA4A
:10311000DFF8EC9022464FF4C0414846FEF71CFA17
:103120001623099301250A950B940C9409A9384696
:10313000FEF71AF948F2060309934FF4901ACDF8F6
:1031400028A00B9409A94046FEF70EF980230993A5
:103150000A950B940C9409A94046FEF705F9202323
:103160000993CDF828A00B9409A93846FEF7FCF87E
:10317000042309930A940B94A7F5806709A938469C
:10318000FEF7F2F84FF45043099302230A930B948D
:103190000C940C230D9309A93846FEF7E5F84FF47B
:1031A000005309930A940B9409A93846FEF7DCF8FA
:1031B0004FF4006309930A940B9409A93046FEF773
:1031C000D3F84FF4405309930A950B940C9409A932
:1031D0003046FEF7C9F84FF4C04309930A950B94A3
:1031E0000C9409A94846FEF7BFF80EB0BDE8F08779
:1031F0000038024000080240000C0240000002407B
:103200000018024008B51348134B0360134B43608A
:1032100000238360C3604FF4804202614361836195
:10322000C3610362FEF79EF950B900210948FEF719
:1032300077FA40B900210748FEF794FA30B908BD83
:1032400000F0D4FAF1E700F0D1FAF3E700F0CEFA9B
:10325000F5E700BF7C1D0020005C0040A086010057
:10326000F0B589B000230393049305930693079365
:1032700002681F4B9A4201D009B0F0BD00250095AD
:103280001C4C236B43F004032363236B03F0040300
:103290000093009B0195236B43F001032363236B91
:1032A00003F001030193019B4FF400730393122772
:1032B0000497059506950426079603A90E48FEF780
:1032C00053F84FF48073039304970595069507967A
:1032D00003A90A48FEF748F80295236C43F400035B
:1032E0002364236C03F400030293029BC4E700BF32
:1032F000005C00400038024000080240000002402C
:1033000000B58FB03422002101A802F0C3F828488C
:10331000284B0360002343608360C360036109227C
:103320004261012282611D22C2610322026240F2D7
:103330000D12426240F24312826240F21712C262E0
:1033400040F24712026380F8343080F8353080F85C
:103350003630FEF7FFFA20BB00220192F0210291E5
:1033600003924FF4A073049302200590FF2006906F
:1033700007924FF4C0600890072009904FF050402A
:103380000A900B910C938DF834208DF835208DF830
:10339000362001A90648FEF757FB28B90FB05DF8A3
:1033A00004FB00F023FAD7E700F020FAF6E700BFAD
:1033B000D01D0020006801402DE9F04198B004467E
:1033C000002113911491159116911791302207A89D
:1033D00002F060F822685F4B9A4202D018B0BDE854
:1033E000F0810823079332230B9302230D930023CC
:1033F000109307A8FEF7ACFE002840F0A880002438
:103400000094554B5A6C42F080625A645A6C02F038
:1034100080620092009A01941A6B42F020021A63B3
:103420001A6B02F020020192019A02941A6B42F088
:1034300001021A631A6B02F001020292029A0394CB
:103440001A6B42F002021A631A6B02F00202039234
:10345000039A04941A6B42F040021A631A6B02F04A
:1034600040020492049A05941A6B42F004021A6313
:103470001A6B02F004020592059A06941A6B42F048
:1034800008021A631B6B03F008030693069B4FF4B4
:103490008063139302251495159416940E2617969F
:1034A00013A92E48FDF760FF41F6580313931495B6
:1034B00015941694179613A92948FDF755FF032371
:1034C00013931495159416944FF00908CDF85C8069
:1034D000244F13A93846FDF747FF4FF47063139349
:1034E000149515941694179613A93846FDF73CFFCA
:1034F0004FF40C631393149515941694179607F5CF
:10350000A05713A93846FDF72FFF4FF49863139384
:10351000149515941694179613A91348FDF724FFD4
:1035200048231393149515941694179613A90F48CE
:10353000FDF71AFF4FF4A0531393149515941694A6
:10354000CDF85C8013A93846FDF70EFF46E700F082
:103550004DF954E700680140003802400014024071
:10356000000002400004024000080240000C02403B
:1035700030B595B03022002108A801F08BFF00245F
:103580000394049405940694079401941C4B1A6CBC
:1035900042F080521A641B6C03F080530193019B2C
:1035A0000294184B1A6842F440421A601B6803F4F4
:1035B00040430293029B012308934FF48033099305
:1035C00002250E954FF480030F9304231093A82334
:1035D000119312950723139308A8FEF763FA0F239C
:1035E0000393049505944FF4A05306934FF480532E
:1035F0000793052103A8FEF7B7FC15B030BD00BF47
:1036000000380240007000402DE9F0438BB0FDF718
:1036100079FDFFF7ADFFFFF70DFDFFF707FCFFF7A3
:103620002DFCFFF7D1FCFFF7EDFDFFF769FE00F081
:10363000BDF900F0E3FA00F031FBFFF7A9FB5A48AF
:1036400002F0CAFC3FE00120FDF788FD9DF82460F0
:103650000024002522462B463146544802F036FC11
:1036600022462B469DF81C10514802F02FFC324692
:10367000504903A802F0C8FC4F48FDF729FC4F4809
:10368000FDF73AFC6FF4FE00FDF72CFC032303AAC0
:10369000FF218220FDF7D8FC22462B464849684688
:1036A00002F0B2FC03236A46DC210A20FDF7CCFCC1
:1036B0000323444ADC215020FDF7C6FCC820FDF757
:1036C0004DFDFFF773FB404B1B88002BBBD03E4BDF
:1036D0005A88A2F10B039BB2DA2BB4D83A4B9B88E1
:1036E000A3F10B0189B2DA29ADD807EE903AB8EE12
:1036F000E77ADFED366A27EE267ABDEEC77A07EE67
:10370000902AF8EEE77A67EEA67AFDEEE77A17EEF2
:10371000903A9CB204F1C9081FFA88F817EE103AE3
:103720009DB205F1FB07BFB2FF2239464046FDF7C7
:10373000EDFB04F1C706B6B205F1F9091FFA89F9E4
:10374000FF2249463046FDF7E1FBFA35ADB2FF22D4
:1037500029464046FDF7DAFBFF2229463046FDF7B1
:10376000D5FBC834A4B2FF2229462046FDF7CEFB84
:10377000FF2239462046FDF7C9FBFF224946204675
:10378000FDF7C4FBFF2249464046FDF7BFFBFF2281
:1037900039463046FDF7BAFB0B4B9A8859880C48DE
:1037A00002F094FB4FE700BFFC2806082C2906080E
:1037B00048290608642906080000FFFF20000020B1
:1037C0006829060870290608781E0020EFEEEE3DF5
:1037D0001C29060808B50268034B9A4200D008BDB0
:1037E000FDF7AAFCFBE700BF001000407047000097
:1037F00030B59FB005460C4600F0F8FB002C36D0E3
:10380000002836D06422002105A801F043FE1B4B9E
:1038100001931B4B02931B4B03931B4B049300F030
:1038200027FB059000F046FB0690184B07930523F5
:103830008DF8203002238DF8213001238DF82430BB
:1038400003238DF8253000F069FB0A9000F09AFB05
:103850000B900F4B0C9301A9284600F023FC054662
:1038600040B1742201A9204601F006FE02E00025C5
:1038700000E0002528461FB030BD00BF1C2A060806
:10388000242A0608482A0608642A06087C2A06080C
:10389000F059010008B500F0D3FB08BD00B583B0B6
:1038A00000230193032300930123034A00F0E4FC67
:1038B00003B05DF804FB00BF3000002038B50546BA
:1038C0000C4600F031FD002864D02169324B1A6E9D
:1038D00042F080421A6601F5AC2202F5F860986663
:1038E000D866186F40F08040186702F5D06098677E
:1038F000D867D3F8800040F08040C3F8800002F51C
:10390000A862C3F88820C3F88C20D3F8902042F036
:103910008042C3F8902001F5A02202F5A070C3F800
:103920009800C3F89C00D3F8A00040F08040C3F892
:10393000A000C3F8A820C3F8AC20D3F8B02042F010
:103940008042C3F8B020C3F8B810C3F8BC10A26A14
:10395000033222F003020021C3F8C810C3F8CC10D0
:10396000C3F8D820C3F8DC20C3F8E820C3F8EC2063
:1039700002F5A070C3F8F800C3F8FC00C3F80821F2
:10398000C3F80C21C3F81811C3F81C11284600F025
:1039900049FD38BD0020FCE73000002008B500F0EC
:1039A00089FD08BD00487047D4BF000808B50D4820
:1039B0000D4B03604FF48273436000238360C36048
:1039C000036143614FF400728261C3610362436229
:1039D00083620A23C362FEF71FFD00B908BDFFF72B
:1039E00005FFFBE7801E00200050014000B589B0B4
:1039F0000023039304930593069307930268154BE2
:103A00009A4202D009B05DF804FB0022019203F54E
:103A10006843596C41F480115964596C01F4801168
:103A2000019101990292196B41F0200119631B6BFE
:103A300003F020030293029B4FF46073039302236D
:103A40000493059206920523079303A90248FDF704
:103A50008BFCD7E7005001400014024082B00021E7
:103A600000910B4B5A6C42F480425A645A6C02F437
:103A700080420092009A01911A6C42F080521A64BE
:103A80001B6C03F080530193019B02B0704700BF91
:103A90000038024010B588B0014600223620FDF7FC
:103AA00083FB3620FDF7B4FB00240194144B1A6C01
:103AB00042F010021A641B6C03F010030193019B87
:103AC00002A903A8FEF726FBFEF704FB43000D48FE
:103AD000A0FB03239B0C013B0B480C4A026040F205
:103AE000E732C260436004618460FEF78BFE10B170
:103AF000012008B010BD0448FEF71AFDF9E700BF29
:103B00000038024083DE1B43D81E00200010004016
:103B10007047FEE7FEE7FEE7FEE770477047704735
:103B200008B50248FEF74CFD08BD00BFD81E0020B6
:103B30000120704708B501F06DFC162303604FF0BB
:103B4000FF3008BD08B54FF0FF31FFF7F3FFFEE788
:103B500070B50C4616460025B54207DAAFF3008073
:103B6000214601F8010B01350C46F5E7304670BDE2
:103B700070B50C4616460025B54205DA14F8010B5F
:103B8000AFF300800135F7E7304670BD08B5034656
:103B90000B4A126842B10A4A106803446A469342CB
:103BA00006D8074A136008BD054A06491160F2E7C6
:103BB00001F030FC0C2303604FF0FF30F3E700BF4F
:103BC000401C0020C01F00204FF0FF3070474FF412
:103BD00000534B6000207047012070470020704761
:103BE000054BD3F8882042F47002C3F888204FF0C8
:103BF00000629A60704700BF00ED00E000B587B03A
:103C000000230293039304930593009301931548B3
:103C1000154A0260436083604FF6FF72C260036121
:103C200043618361FEF7EEFD90B94FF48053029338
:103C300002A90C48FEF71EFE68B900230093019309
:103C400069460848FEF796FE40B907B05DF804FBE8
:103C5000FFF7CCFDE9E7FFF7C9FDEEE7FFF7C6FD8B
:103C6000F3E700BF201F0020000001400268094B5D
:103C70009A4200D0704782B000230193064B5A6CE1
:103C800042F001025A645B6C03F001030193019B53
:103C900002B07047000001400038024008B50A48F1
:103CA0000A4B03604FF4E133436000238360C36039
:103CB00003610C2242618361C361FEF72FFF00B9EB
:103CC00008BDFFF793FDFBE7681F002000100140CF
:103CD00000B589B0002303930493059306930793DB
:103CE000026803F1804303F588339A4202D009B099
:103CF0005DF804FB0022019203F59433596C41F006
:103D000010015964596C01F010010191019902925E
:103D1000196B41F0010119631B6B03F0010302935E
:103D2000029B4FF4C0630393022304930592032381
:103D300006930723079303A90148FDF715FBD6E770
:103D400000000240DFF834D0002103E00C4B5B5848
:103D5000435004310B480C4B42189A42F6D30B4A9D
:103D600002E0002342F8043B094B9A42F9D3FFF7E3
:103D700037FF01F055FBFFF747FC704700000320B9
:103D8000842E0608000000201808002018080020D3
:103D9000BC1F0020FEE72DE9F04F002483B006464B
:103DA0008846A3464FF0180A4FF00109A0B236B971
:103DB00000283BD0B3685B68C8F8003036E0338831
:103DC0009C42F5D27368002BF2D053F82450002D9A
:103DD000EED0B368AA69596810689F68019101F034
:103DE000ABFA01990AFB04F3CA18C850A2F8049070
:103DF000EB68DB68D380EB689B681381EB685B68DA
:103E0000D360AB69E1009B681361781850B147F843
:103E100034B02B6843601BB15B88003318BF0123AB
:103E20007B5003B9002050610134BFE703B0BDE807
:103E3000F08F30B4DD685C69ED68E46804FB05F47C
:103E40008460098804FB01F4C46011684160126851
:103E5000144404609A691468A40007D4D2E90245A6
:103E6000641B214491609B694268DA6030BC7047F2
:103E70000A490B4A0B68012023F001030B6013462B
:103E800010601A68002AFCD1064B074A1A601A68AB
:103E9000064B9A4200D0FEE705487047002000E03C
:103EA0000830024000300240C2A507F4CDB5E8B5A5
:103EB000282906081349144A0B68012023F001033E
:103EC0000B6082B01346106018680028FCD10F4BBD
:103ED0000F4A1A601A680F4B9A4200D0FEE70E4B49
:103EE0001B68DAB262F30700C3F3072262F30F2004
:103EF000C3F3074262F317401B0E63F31F6002B067
:103F0000704700BF002000E008300240003002404F
:103F1000C2A507F4CDB5E8B5882A06081349144AA6
:103F20000B68012023F001030B6082B01346106080
:103F300018680028FCD10F4B0F4A1A601A680F4B03
:103F40009A4200D0FEE70E4B1B68DAB262F307001C
:103F5000C3F3072262F30F20C3F3074262F3174053
:103F60001B0E63F31F6002B0704700BF002000E02B
:103F70000830024000300240C2A507F4CDB5E8B5D4
:103F80008C2A06081349144A0B68012023F0010308
:103F90000B6082B01346106018680028FCD10F4BEC
:103FA0000F4A1A601A680F4B9A4200D0FEE70E4B78
:103FB0001B68DAB262F30700C3F3072262F30F2033
:103FC000C3F3074262F317401B0E63F31F6002B096
:103FD000704700BF002000E008300240003002407F
:103FE000C2A507F4CDB5E8B5902A060810B420B1F3
:103FF0000D4B02689A4218BF00200C490C4A0B680E
:10400000012423F001030B60134614601A68002A90
:10401000FCD1084B084A1A601A68084B9A4200D033
:10402000FEE75DF8044B70470001C0A1002000E0EE
:104030000830024000300240C2A507F4CDB5E8B513
:1040400010B420B1114B02689A4218BF00201049E9
:10405000104A0B68012423F001030B60134614601F
:104060001A68002AFCD10C4B0C4A1A601A680C4BD7
:104070009A4200D0FEE720B110305DF8044B00F00A
:1040800025BC41F210005DF8044B70470001C0A14F
:10409000002000E00830024000300240C2A507F4D2
:1040A000CDB5E8B5F8B50E46044620B16B4B0268B5
:1040B0009A4218BF00246A496A4A0B68012023F01B
:1040C00001030B60114610600B68002BFCD1664A9F
:1040D000664911601168664A914200D0FEE7002CE3
:1040E00061D0002E61D0F366226D002A55D00123E5
:1040F000F366D3689A420CD05BB1022203E0501CF5
:104100000B4621B10246F266D9689942F7D1002ADE
:1041100043D0B4F8480000B1E06C06F13401FFF779
:104120003AFE0546308600285ED0B4F84830012BB0
:104130008ABFE06C00200C3006F13801FFF72BFE3F
:1041400005467086002847D06368336704F130075E
:104150000FCF06F13C050FC597E8030085E8030083
:1041600018340FCC06F154050FC594E8030085E818
:1041700003003B4A3B491368012023F0010313600D
:104180000A4608601368002BFCD1374B3749196089
:104190001968374B99420AD0FEE704F11000182243
:1041A000112100F099FB0020F8BD3046FCE7314BAF
:1041B0002B48336103682B4923F00103012403607A
:1041C00014600B68002BFCD1274B284A1A601A6830
:1041D000274B9A4210D0FEE704F110001822132159
:1041E00000F07AFB2846DFE704F1100018221221C4
:1041F00000F072FB2846D7E740F2052318487361A8
:104200000368184A23F00103012403600C6013685B
:10421000002BFCD1144B154919601968144B9942B5
:1042200000D0FEE740F201130D4973620B680D4C9C
:1042300023F0010301200B6010602368002BFCD1E8
:10424000094B0A4A1A601A68094B9A4200D0FEE7E5
:1042500040F20143B3620120A6E700BF0001C0A104
:10426000002000E00830024000300240C2A507F400
:10427000CDB5E8B5282906082DE9F041234E24499B
:10428000356882B025F001059DF820709DF8244026
:10429000356001250D600D68002DFCD11D491E4EB5
:1042A0000E600E681D498E4200D0FEE7D0B19846E0
:1042B00013461B4A1A600360064600F005FBB0B1C6
:1042C000230243EA074343EA0863B3F1827F10D92C
:1042D0000122002333601023002062F3070063F300
:1042E0001F2001E041F2100002B0BDE8F081302251
:1042F000EFE702A80B4B40F8043D00F0B9FF10B106
:104300002B462A46E8E70222E3E700BF002000E050
:104310000830024000300240C2A507F4CDB5E8B530
:104320000001C0A103840484F8B50C46054620B101
:10433000364B02689A4218BF00253549354A0B684A
:10434000012023F001030B60134610601A68002A55
:10435000FCD1314B314A1A601A68314B9A4200D075
:10436000FEE73DB344B3A76A2669002F3DD05EB394
:1043700027460FCF05F118060FC697E8030086E819
:10438000030018340FCC05F130060FC694E8030083
:1043900086E803002A6D0323EB605AB1D368956069
:1043A0009A4207D033B1DA689D609A4202D0134630
:1043B000002BF8D12846F8BD05F11000112210217C
:1043C00000F08AFA2546F5E72189E288E36802FBD6
:1043D00001F203FB02F3002BCAD005F110001222F8
:1043E000102100F079FA3546E4E7218CE28B636A0C
:1043F00002FB01F203FB02F3002BB8D005F1100021
:104400001322102100F068FA3D46D3E70001C0A155
:10441000002000E00830024000300240C2A507F44E
:10442000CDB5E8B538B5044620B11C4B02689A42B8
:1044300018BF00241A491B4A0B68012023F001030E
:104440000B60134610601A68002AFCD1164B174AFD
:104450001A601A68164B9A4200D0FEE7A4B1E368CE
:1044600013F0020512D0A36D63B1256D1DB909E0EB
:104470001D463BB1A36DE26D294600209847EB68CD
:10448000AB42F5D1012038BD204638BD04F1100003
:104490001022112100F020FA284638BD0001C0A1E9
:1044A000002000E00830024000300240C2A507F4BE
:1044B000CDB5E8B52DE9F04F83B00446019220B1A7
:1044C000A54B02689A4218BF0024A448A44B026876
:1044D00022F00102026001221A601A68002AFCD14F
:1044E000A04BA14A1A601A68A04B9A4200D0FEE77E
:1044F000002C66D0B4F8487007B1E76CE36803F0AD
:1045000003030026032B666140F0FE8000297FD064
:10451000002F7DD03B88002B7AD00D46A04635F881
:10452000049F9E427DD27B68002B7AD053F82640B0
:10453000002C76D0BB681B6813EB061A67D0B5F861
:1045400004E0B5F802B0A069D5F808C041680BFBDB
:104550000EF30CFB03F3994250D3E368DA685A4533
:104560004CD19A68724549D15B689C4546D1006838
:1045700000F02EFFE2686369D268DB6803FB02F398
:1045800098423BD3A369186800F0D6FE55F8043C66
:10459000434033F07E4328D1EB68F3B1B5F800B067
:1045A000BBF1000F12D0234605F10C0229465046FC
:1045B000FFF73FFCD9453B8838BFD946013618354F
:1045C000AFE7A346584603B0BDE8F08F08F11000EE
:1045D0002122122100F080F9F4E708F110001722DF
:1045E00012219B4600F078F9ECE708F1100019223F
:1045F000122100F071F94FF0000BE3E708F1100011
:104600001822122100F068F94FF0000BDAE7444657
:1046100004F110001722122100F05EF94FF0000B98
:10462000D0E7019AB8F848304446002A00F0A48048
:10463000012B40F24081D8F84C8018F10C0F00F0AB
:104640003A81B8F80C30002B00F035810432154661
:1046500000279F4280F08C80D8F81030002B00F0AB
:10466000878053F82760002E00F08280D8F814303D
:104670001B6813EB071A67D0B5F804E0B5F802B071
:10468000B069D5F808C041680BFB0EF30CFB03F3CF
:104690009942C0F01081F368DA685A4540F00B8106
:1046A0009A68724540F007815B689C4540F0038141
:1046B000006800F08DFEF2687369D268DB6803FB66
:1046C00002F39842C0F0F780B369186800F034FE36
:1046D00055F8043C434033F07E432CD1EB6813B3D0
:1046E000B5F800B0BBF1000F16D0334605F10C024F
:1046F00029465046FFF79DFBD945B8F80C3038BF26
:10470000D94601371835A4E704F1100030221121F1
:1047100000F0E2F8B34655E704F11000212213211E
:1047200000F0DAF84EE704F11000172213219B463F
:1047300000F0D2F846E704F110001922132100F02E
:10474000CBF84FF0000B3DE704F1100017221321C6
:1047500000F0C2F8D34635E70001C0A1002000E018
:104760000830024000300240C2A507F4CDB5E8B5DC
:10477000B4F84830A4F81490002B00F09980012B75
:10478000E56C40F2938005F10C07E08AA38A83422E
:1047900077D9A346002D32D02B88002B2FD06B6801
:1047A000002B2CD01B684FF0000843B3A9689A690E
:1047B000D1F800A0146890684FEA08190AEB0906BE
:1047C000A40071685FD4D468001B014491609B69A8
:1047D0007268DA60D6E901315AF809200B44934235
:1047E00024BFF368D31A73602B8808F10108984539
:1047F00005D26B681BB153F82830002BD6D1584630
:1048000000F060FD002F32D03B88002B2FD07B685A
:104810006BB3186858B34FF00008BB688169D3F8D0
:1048200000A00C684FEA08190AEB0906D6E901C294
:10483000A4000CEB02032AD45AF80920934224BFA7
:10484000F368D31A73608169D1E90224121B1344FF
:104850008B6083697268DA603B8808F101089845CB
:1048600005D27B681BB153F828000028D5D1BBF8CE
:104870001600BBF81430013080B28342ABF816004A
:1048800088D883469EE6B26800F0F6FDA2E7896804
:10489000604600F0F1FDD6E901315AF809200B44D9
:1048A000934224BFF368D31A7360D5E700276CE7FF
:1048B0001D461F4669E704F110001822132100F07D
:1048C0000BF84FF0000B7DE60120704703460022F5
:1048D00000681A60704700BF037833B9017003683D
:1048E00062F31F230360012070470020704700BF60
:1048F0002DE9F047DDF820C05FEADC0800F0C08059
:1049000001F108044FEAC8099FED5F7A04EB090E34
:1049100003F1200514F8076C14F808AC15ED073AFC
:1049200015ED085A14F8067C15ED064A15ED056AD2
:1049300055ED043A55ED034A55ED025A55ED016A1D
:1049400002EB8606D6ED007A14F8056C02EB8A0AB3
:1049500067EE837A9AED003A14F804ACE3EE057A38
:1049600002EB870702EB860697ED003A96ED005AB8
:1049700014F8036C14F8027CE3EE047A02EB8A0A62
:1049800002EB86069AED003A96ED004A14F8016CA7
:10499000E5EE067A02EB870702EB860697ED005AF2
:1049A00096ED006AE3EE237A0834A64505F120056A
:1049B000E4EE247AE5EE257AE6EE267A37EE277ADB
:1049C000A8D1494403EB48131CF0070C50D00C78D5
:1049D000D3ED006A02EB8404D4ED007ABCF1010F40
:1049E000A6EEA77A44D04C78D3ED016A02EB84049A
:1049F000D4ED007ABCF1020FA6EEA77A38D08C78FD
:104A0000D3ED026A02EB8404D4ED007ABCF1030F0B
:104A1000A6EEA77A2CD0CC78D3ED036A02EB8404FF
:104A2000D4ED007ABCF1040FA6EEA77A20D00C7961
:104A3000D3ED046A02EB8404D4ED007ABCF1050FD7
:104A4000A6EEA77A14D04C79D3ED056A02EB840464
:104A5000D4ED007ABCF1060FA6EEA77A08D08979CA
:104A6000D3ED067A02EB8102D2ED006AA6EEA77AB8
:104A7000D0ED007A37EE877A80ED007ABDE8F087D6
:104A80009FED017AA0E700BF000000002DE9F04F84
:104A9000099F27F0010C5FEAD70803EB8C0C00F0AC
:104AA000AE800D1D4FEA88099FED567A05EB090E81
:104AB00003F1200415F8046C14ED073A15F803BC53
:104AC00054ED083A14ED064A54ED054A14ED045A23
:104AD00054ED035A14ED026A54ED016A06F00F0A10
:104AE00002EB8A0ADAED007A15F802AC360902EB1D
:104AF000860667EE837A96ED003A4FEA1B16E3EEE0
:104B0000237A02EB86060BF00F0BD6ED003A15F870
:104B1000016CE3EE847A02EB8B0B04359BED004ACB
:104B20004FEA1A1BE4EE247A02EB8B0B0AF00F0A11
:104B3000DBED004AE4EE857A02EB8A0AAE459AED97
:104B4000005A4FEA161AE5EE257A02EB8A0A06F0B9
:104B50000F06DAED005AE5EE867A02EB860604F1DE
:104B6000200496ED006AE6EE267A37EE277AA1D188
:104B7000494403EB48139C452DD90CF1070C03F174
:104B80000805ACEB050C2CF0070403F11008A04459
:104B900001F1FF3E1EF8014F15ED016A55ED026A65
:104BA00004F00F0602EB86062409D6ED007A02EB2C
:104BB000840467EE867A94ED006AE6EE267A08357C
:104BC000A84537EE277AE5D14FEADC0C0CF1010C51
:104BD000614403EBCC03FC0709D50978D3ED007AD7
:104BE0000B0902EB8302D2ED006AA6EEA77AD0EDA4
:104BF000007A37EE877A80ED007ABDE8F08F9FED7E
:104C0000017AB8E70000000042691388002B00F029
:104C1000CA815268506800B10068012B40F2C0811F
:104C2000116901B10968022B00F0BF812DE9F04F35
:104C30002DED108BD36991B0002B00F00B821C6816
:104C4000089412F1180400F0DF81128B012A40F25F
:104C5000FE81002B00F0DA815B680693089BCC682C
:104C60009B69C5681A68D5F80480D4E90267C2F365
:104C7000C61CC2F341554CFA05F5C2F343420B95ED
:104C8000042A07FB06F56468079500F0DD81082A11
:104C900000F0DA814FF0000A8A6981699068089A09
:104CA000049052698F68D2F80490A2000992861885
:104CB000079A002A00F0C381A8F1100212090132FC
:104CC00092010C924FEA88020A929D68069BDFEDE2
:104CD000D0AA0022059208F00F020D92002B43D0BB
:104CE0009B699C68049BBAF1000F42D0B3422AD260
:104CF0000B9A9B460FAB0393042A334646469846CD
:104D000000F05681002C00F08581D4F800C0039893
:104D100000963B4629465246CDF83CC0FFF7E8FDD9
:104D20000F9B4BF8043BC34504F104044D44E9D305
:104D30004346B0461E46049AD343334423F003034C
:104D40000433D31804930A9A059B1744099A16440E
:104D5000079A01339342059300F07181089B9B6988
:104D60009D68069B002BBBD11C46049BBAF1000F2B
:104D7000BCD1B342E7D218460C9BDDF834B007EB48
:104D8000030C9E46002C00F0FF80B8F10F0FD4ED0D
:104D900000FADFED9F6A04F1040440F2FD8007F1A0
:104DA000400205F14003414613ED0FFA52ED0F7A30
:104DB00053ED10EA12ED10EA52ED0EDA12ED0DDAB3
:104DC00053ED0DCA12ED0CCA53ED0CBA13ED0BBA2C
:104DD00012ED0BAA52ED0A9A13ED0A9A52ED098AC6
:104DE00013ED098A13ED080A52ED080A13ED071AAC
:104DF00052ED071A13ED062A52ED062A12ED053A76
:104E000053ED053A13ED044A52ED044A12ED035AEC
:104E100053ED035A12ED026A13ED027A67EE8F7AB0
:104E200013ED0EFAEEEE8E7A10390F2953ED01EAEA
:104E300012ED01EAEDEE8F7A03F1400302F1400238
:104E4000EDEE2C7AECEE2B7AEBEE0A7AE9EE897A2B
:104E5000E8EE887AE0EE207AE1EE217AE2EE227A3C
:104E6000E3EE237AE4EE247AE5EE257AE6EE077A9D
:104E7000EEEE8E7A76EEA76A96D805EB0E015B46CB
:104E80006246002B75D091ED007AD2ED007A012BAD
:104E9000E7EE276A6DD091ED017AD2ED017A022B0F
:104EA000E7EE276A65D091ED027AD2ED027A032B04
:104EB000E7EE276A5DD091ED037AD2ED037A042BF9
:104EC000E7EE276A55D091ED047AD2ED047A052BEE
:104ED000E7EE276A4DD091ED057AD2ED057A062BE3
:104EE000E7EE276A45D091ED067AD2ED067A072BD8
:104EF000E7EE276A3DD091ED077AD2ED077A082BCD
:104F0000E7EE276A35D091ED087AD2ED087A092BC1
:104F1000E7EE276A2DD091ED097AD2ED097A0A2BB6
:104F2000E7EE276A25D091ED0A7AD2ED0A7A0B2BAB
:104F3000E7EE276A1DD091ED0B7AD2ED0B7A0C2BA0
:104F4000E7EE276A15D091ED0C7AD2ED0C7A0D2B95
:104F5000E7EE276A0DD091ED0D7AD2ED0D7A0E2B8A
:104F6000E7EE276A05D091ED0E7AD2ED0E7AE7EEE4
:104F7000276A4D447FEEA66AE0EC016AB042BFF4B6
:104F8000DAAE002C7FF401AFB8F10F0FF0EE6AFA41
:104F9000DFED1F6A3FF603AF434629463A4670E706
:104FA00000235B68FFDE5B68FFDE00235B68FFDEDB
:104FB000ACB1D4F800C0039800963B46294652464F
:104FC000CDF83CC0FFF762FD0F9B4BF8043BC34597
:104FD00004F104044D44BFF4ABAE002CE9D13446D7
:104FE0004646DDF80C8000943B4629465246404632
:104FF000CDED0FAAFFF74AFD0F9B4BF8043BB345DD
:105000004D44F0D3A04696E6069427E6069325E69F
:105010000000000034464646DDF80C8000943B4614
:10502000294652464046CDED0FAAFFF761FC0F9B83
:105030004BF8043BB3454D44F0D3A0467BE611B09A
:10504000BDEC108BBDE8F08FD3F80CA024E6002354
:10505000069303E60893F4E530B4D3ED026A806862
:105060008C6893ED007A93ED016A02F18042013A77
:10507000F5EEC06A9200F1EE10FA1044224421D4F9
:10508000A2423DD3131D021D10E0B4EEE77AF1EE0B
:1050900010FA77EEC75A01DD65EE867A62ED017A85
:1050A0008868A3F1080484422B4629D353ED017A82
:1050B000F4EEE76AF1EE10FAA3F10405E5DCF0EE98
:1050C000667AEBE7B5EE406AF1EE10FA1AD0A2422A
:1050D00016D3131D021D53ED017A77EEC76AF4EE65
:1050E000C77AA3F10804F1EE10FAA3F1040066EE0A
:1050F000866A23461ED562ED016A8B68A3421ED9DB
:1051000030BC7047A242FBD3131D0025021D53ED96
:10511000017AB4EEE77AA3F10804F1EE10FAA3F1F4
:10512000040023460DD862ED017A8B68A342E7D8CC
:105130000346ECE762ED017A8C689C42E0D80346B6
:10514000C9E742F8045D8C689C42D9D80346DEE783
:10515000426913883BB370B45268566806B136682A
:10516000012B1DD9136903B11B688269B468986962
:10517000B169C4F31724002A41D0D2E90153012DAB
:1051800013D0002C6FD0F668012206EB840454F88B
:10519000045DA64205FB02F2F9D170BCFFF75CBFCB
:1051A00000235B68FFDE5B68FFDE80688A6893ED42
:1051B000007A84B1F6682B4606EB840454F8045D4B
:1051C000A64205FB03F3F9D103F18043013B9B00A9
:1051D000D21818443DD2131D0025021D53ED017A4B
:1051E000B4EEE77AF1EE10FAA3F1040033D862EDE1
:1051F000017A8C68083B9C422BD80346EEE7806816
:105200008B6884B1F668012206EB840454F8045DCF
:10521000A64205FB02F2F9D102F18042013A920066
:105220009B18104415D29FED117A0433043053EDCE
:10523000017AF5EEC07AF1EE10FAB8BFF0EE477AD7
:1052400060ED017A8C68A3F108029442A3F1040393
:10525000EDD970BC704742F8045D8C68083B9C42F5
:10526000F7D80346BAE7012297E700BF0000000025
:10527000134B82B01B68019318B10378032B02D043
:10528000002002B070479DF80420934204D0012012
:1052900080F0010002B0704742789DF805309A42D4
:1052A00000F10100F3D110F8012F9DF806309A4269
:1052B000EDD142789DF807309A42E8D10020E7E727
:1052C000B0270608F8B5866D056D04461EB3CDB14E
:1052D00045652946C26D0120B047616D0027E26D2A
:1052E0000220B047656D2B6928469847EB689D42C0
:1052F0004FF00300194606D06365E26DB047616D5B
:105300000029ECD1F8BD00216765E26DB047616D01
:105310000029E4D1F8BD002DF4D045652B6928465D
:105320009847EB68AB4204D063651D46002BF5D16E
:10533000E8E700236365F8BDC0F34343022B1FD0A9
:105340001C4A20F07E4393420AD00DDC1A4A934255
:1053500006D01DDD194A934202D00F3293420DD17F
:1053600000F0D04018437047154A9342F8D018DD3A
:10537000144A9342F4D0144A9342F1D04023EFE709
:10538000124B034043F4802300F0D0401843704791
:10539000A2F207429342E3D002F580629342DFD04B
:1053A000ECE7A2F580629342DAD007329342D7D07D
:1053B000E4E700BF40008400470404004008040004
:1053C000400884004F08840040108201FF3F8000A5
:1053D000C1B1C0F38232C0F3C613134401FB03F121
:1053E000C0F341520731C0F3434021F007010428C4
:1053F00021FA02F108D0082801D101EB032107317D
:10540000C80870470846704701EB03110731C80808
:10541000704700BF014B1868704700BF4806002066
:1054200070B50D4D0D4C641BA4100026A64209D189
:105430000B4D0C4C02F040FF641BA4100026A6424A
:1054400005D170BD55F8043B98470136EEE755F895
:10545000043B98470136F2E77C2E06087C2E0608AE
:105460007C2E0608802E0608024B0146186800F0C4
:1054700069B800BF480600200A44914200F1FF339A
:1054800000D1704710B511F8014B03F8014F91425C
:10549000F9D110BD02440346934200D1704703F88E
:1054A000011BF9E737B5002948D051F8043C0190B9
:1054B000002BA1F10404B8BFE41801F021FF204A39
:1054C00001981368154633B96360146003B0BDE8F2
:1054D000304001F01BBFA3420BD9216862189342F0
:1054E00004BF1A685B68636004BF521822602C60B6
:1054F000ECE71A465B680BB1A342FAD9116855185C
:10550000A5420BD1246821445418A3421160DDD177
:105510001C685B68536021441160D7E702D90C23F3
:105520000360D3E7256861198B4204BF19685B6883
:10553000636004BF491921605460C7E703B030BD00
:10554000481C0020F8B5CD1C25F0030508350C2DAE
:1055500038BF0C25002D064601DBA94203D90C23D8
:1055600033600020F8BD01F0CBFE21490A681446E3
:105570009CB9204F3B6823B92146304600F034FDEA
:1055800038602946304600F02FFD431C23D10C2300
:105590003360304601F0BAFEE3E723685B1B17D4A3
:1055A0000B2B03D923601C44256004E06368A242EE
:1055B0000CBF0B605360304601F0A8FE04F10B00F5
:1055C000231D20F00700C21ACCD01B1AA350C9E734
:1055D00022466468CCE7C41C24F00304A042E3D054
:1055E000211A304600F000FD0130DDD1CFE700BFC9
:1055F000481C00204C1C00202DE9FF4755EC104BA7
:10560000002D0E4619462B46BBBF05F100431D4633
:1056100000232D230B700D9BDDF830A0914623F065
:105620002008BCBF22461446B8F1460F05D0B8F199
:10563000450F00D10136022100E0032103AB0193A5
:1056400002AB009345EC104B5346324600F048FE47
:10565000B8F1470F074602D119F0010F22D0B8F177
:10566000460F07EB060910D13B78302B0AD10022F8
:10567000002320462946FBF737FA18B9C6F1010680
:10568000CAF80060DAF8003099440022002320466E
:105690002946FBF729FA08B1CDF80C903022039B7C
:1056A0004B4507D3039B0E9ADB1B3846136004B0AF
:1056B000BDE8F087591C03911A70F0E7F7B503466F
:1056C0000029B8BF494203F8022BB4BF2D222B2278
:1056D000092942702ADD0DF10704A4460A27A646CF
:1056E0000A4691FBF7F607FB16153035632A04F1DD
:1056F000FF340EF8015C3146F1DC3031AEF10205C9
:1057000004F8011C441C294661450AD30DF1090225
:10571000A2EB0E02654588BF00221344181A03B09D
:10572000F0BD11F8012B04F8012FEDE730233031E3
:105730008370C170031DF1E72DE9F04F2DED028B51
:105740008DB00C46DDF8608016461F46054601F018
:105750006BFDD0F800A05046FAF74AFD00230A93EB
:1057600023680593D8F8003094F818B0073323F075
:10577000070303F10802C8F80020D3E90023C4E9B5
:105780001223D4E9128929F000430793CDF8188039
:1057900008EE100A9F4BDDE906014FF0FF32FBF7E0
:1057A000D5F988BBDDE906019A4B4FF0FF32FBF7D4
:1057B000AFF948BB0022002340464946FBF79EF95B
:1057C00010B12D2384F84330934B9448BBF1470F1D
:1057D00094BF9846804603232361059B23F004026F
:1057E00022604FF00009009733460BAA2146284655
:1057F00000F0D8F9013040F090804FF0FF300DB04C
:10580000BDEC028BBDE8F08F42464B464046494610
:10581000FBF79CF940B14B46002BBCBF2D2384F80D
:1058200043307F487F4BD1E763680BF0DF0206927D
:105830005A1C3FD106236360059B616843F4806274
:10584000002303930AABCDE901B309AB49EC108BFC
:10585000009322600DF123032846FFF7CDFE069B3F
:105860000999472B804608D1C81C02DB636899421E
:1058700041DDABF1020B5FFA8BFBBBF1650F20D86A
:1058800001395A4604F150000991FFF717FF0A9AAF
:105890001318012A8146236102DC2268D20701D550
:1058A000013323619DF82330002B9CD02D2384F8F5
:1058B000433098E7069A472ABED1002BBCD101237A
:1058C000B9E7BBF1660F18D1002963680BDD2161D0
:1058D00013B92268D00702D501330B442361A165B7
:1058E0004FF00009DEE713B92268D20701D5023371
:1058F000F4E70123F2E74FF0670B0A9B994205DBBF
:1059000023682161D807EAD54B1CE7E70029D4BFFB
:10591000C1F1020201221344E0E723685A0507D4CB
:105920002369424631462846B84701302CD164E706
:10593000BBF1650F40F2E080D4E9120100220023A0
:10594000FBF7D2F8002834D0374A012331462846E5
:10595000B84701303FF451AFDDE909239A4202DB39
:105960002368D80710D518EE103A5246314628461B
:10597000B84701303FF441AF4FF0000804F11A0975
:105980000A9B013B434509DC23689B0700F1058125
:10599000E0680B9B9842B8BF184630E701234A469F
:1059A00031462846B84701303FF427AF08F10108D7
:1059B000E6E7099B002B39DC1B4A012331462846C8
:1059C000B84701303FF419AFDDE90923134302D191
:1059D0002368D907D8D518EE103A524631462846E2
:1059E000B84701303FF409AF4FF0000904F11A0A3B
:1059F000099B5B424B4501DC0A9B92E7012352461F
:105A000031462846B84701303FF4F7AE09F10109A5
:105A1000EEE700BFFFFFEF7F982A06089C2A0608E2
:105A2000A42A0608A02A0608A82A06080A9AA36D2E
:105A30009A42A8BF1A46002A914637DC4FF0000B65
:105A400029EAE97904F11A02A36D0593A3EB09038E
:105A50005B4533DCDDE909239A423BDB2368DA0747
:105A600038D40A9A059B0999D31AA2EB01099945E2
:105A7000A8BF9946B9F1000F35DC4FF0000829EABC
:105A8000E97904F11A0ADDE909239B1AA3EB09035A
:105A900043457FF779AF0123524631462846B84740
:105AA00001303FF4AAAE08F10108ECE71346314695
:105AB00042462846B8470130C0D19EE60123314610
:105AC00028460592B84701303FF497AE059A0BF18E
:105AD000010BB9E718EE103A524631462846B8474E
